:100000000C94C6020C94E5020C94E5020C94E502F3
:100010000C94E5020C94E5020C94E5020C94E502C4
:100020000C94E5020C94E5020C94E5020C94E502B4
:100030000C94E5020C94E5020C94E5020C94E502A4
:100040000C94E5020C94E5020C94E5020C94E50294
:100050000C94E5020C94E5020C94E5020C94E50284
:100060000C94E5020C94E5020C94E5020C94E50274
:100070000C94E5020C94E5020C94E5020C94E50264
:100080000C94E5020C94E5020C94E50200000000DB
:10009000003E5B4F5B3E3E6B4F6B3E1C3E7C3E1C0E
:1000A000183C7E3C181C577D571C1C5E7F5E1C0054
:1000B000183C1800FFE7C3E7FF0018241800FFE70B
:1000C000DBE7FF30483A060E2629792926407F05CE
:1000D0000507407F05253F5A3CE73C5A7F3E1C1CE4
:1000E00008081C1C3E7F14227F22145F5F005F5FA4
:1000F00006097F017F006689956A60606060609490
:10010000A2FFA29408047E040810207E2010080894
:100110002A1C08081C2A08081E101010100C1E0C9F
:100120001E0C30383E3830060E3E0E060000000031
:100130000000005F00000007000700147F147F1418
:10014000242A7F2A1223130864623649562050005D
:1001500008070300001C2241000041221C002A1C49
:100160007F1C2A08083E0808008070300008080834
:100170000808000060600020100804023E51494554
:100180003E00427F400072494949462141494D3372
:100190001814127F1027454545393C4A49493141D9
:1001A000211109073649494936464949291E0000A7
:1001B00014000000403400000008142241141414FC
:1001C0001414004122140802015909063E415D59E8
:1001D0004E7C1211127C7F494949363E41414122F1
:1001E0007F4141413E7F494949417F090909013E1B
:1001F000414151737F0808087F00417F4100204042
:10020000413F017F081422417F404040407F021C53
:10021000027F7F0408107F3E4141413E7F0909096A
:10022000063E4151215E7F09192946264949493236
:1002300003017F01033F4040403F1F2040201F3FFC
:100240004038403F63140814630304780403615981
:10025000494D43007F4141410204081020004141C3
:10026000417F04020102044040404040000307086F
:100270000020545478407F2844443838444444286B
:10028000384444287F385454541800087E09021812
:10029000A4A49C787F0804047800447D400020409A
:1002A000403D007F1028440000417F40007C0478DE
:1002B00004787C080404783844444438FC18242426
:1002C0001818242418FC7C080404084854545424A6
:1002D00004043F44243C4040207C1C2040201C3C23
:1002E0004030403C44281028444C9090907C44641A
:1002F000544C4400083641000000770000004136AD
:10030000080002010204023C2623263C1EA1A16132
:10031000123A4040207A3854545559215555794164
:100320002254547842215554784020545579400C39
:100330001E5272123955555559395454545939551C
:100340005454580000457C410002457D420001455F
:100350007C407D1211127DF0282528F07C545545F3
:10036000002054547C547C0A097F4932494949325F
:100370003A4444443A324A4848303A4141217A3A70
:1003800042402078009DA0A07D3D4242423D3D403C
:1003900040403D3C24FF2424487E4943662B2FFCEB
:1003A0002F2BFF0929F620C0887E09032054547999
:1003B000410000447D413048484A32384040227A6A
:1003C000007A0A0A727D0D19317D2629292F2826E7
:1003D0002929292630484D402038080808080808EF
:1003E0000808382F10C8ACBA2F102834FA00007B48
:1003F000000008142A142222142A1408550055005B
:1004000055AA55AA55AAFF55FF55FF000000FF0049
:10041000101010FF00141414FF001010FF00FF1044
:1004200010F010F0141414FC001414F700FF000076
:10043000FF00FF1414F404FC141417101F10101FF5
:10044000101F1414141F00101010F0000000001FE3
:10045000101010101F10101010F010000000FF10EE
:100460001010101010101010FF10000000FF1400EA
:1004700000FF00FF00001F10170000FC04F414141C
:100480001710171414F404F40000FF00F7141414E8
:1004900014141414F700F7141414171410101F1068
:1004A0001F141414F4141010F010F000001F101F8B
:1004B0000000001F14000000FC140000F010F010F9
:1004C00010FF10FF141414FF141010101F00000070
:1004D00000F010FFFFFFFFFFF0F0F0F0F0FFFFFF74
:1004E0000000000000FFFF0F0F0F0F0F38444438CB
:1004F00044FC4A4A4A347E02020606027E027E021A
:1005000063554941633844443C04407E201E200624
:10051000027E020299A5E7A5991C2A492A1C4C7261
:1005200001724C304A4D4D303048784830BC625AE8
:10053000463D3E494949007E0101017E2A2A2A2A78
:100540002A44445F444440514A444040444A514054
:100550000000FF0103E080FF000008086B6B083615
:1005600012362436060F090F060000181800000086
:100570001010003040FF0101001F01011E00191D75
:100580001712003C3C3C3C000000000011241FBE40
:10059000CFEFD0E4DEBFCDBF13E0A0E0B1E0ECE4EC
:1005A000FBE400E00BBF02C007900D92A238B10738
:1005B000D9F714E0A2E8B3E001C01D92AE3AB1074A
:1005C000E1F70E94241F0C94A4250C9400000F93C3
:1005D0001F93409176035091770360917803709157
:1005E000790300E010E09801E82FF0E00CC0D90199
:1005F000C8010196A11DB11D04171507260737076D
:1006000050F48C019D0186B190E0817090708E173E
:100610009F0769F303C000E010E09801602F712F7D
:10062000822F932F1F910F9108958F929F92AF92D7
:10063000BF92CF92DF92EF92FF920F931F93CF93CF
:10064000DF93CDB7DEB7C054D1400FB6F894DEBF0C
:100650000FBECDBF80918F0380938E0380938D0357
:1006600080938C0380938B03389A409A83E294EFB3
:100670000197F1F700C00000389A4098A7E8B3E16D
:100680001197F1F700C00000409ABDE0BA95F1F76C
:1006900000003898E3E0EA95F1F7000080919003BC
:1006A0000E94E702DC01CB010097A105B10509F426
:1006B000A6C080917A030E94E702DC01CB0100977B
:1006C000A105B10509F49EC08E010F5F1F4F0F2ECB
:1006D000F1E4EF2EF1E0FF2EF02DEC0EFD1E8091E7
:1006E00090030E94E702DC01CB01F8018083918333
:1006F000A283B38380917A030E94E702DC01CB01DD
:10070000F80184839583A683B783085F1F4F0E1576
:100710001F0529F749815A816B817C810D811E81DA
:100720002F813885411551056105710509F46DC0AA
:10073000011511052105310509F46AC00F2EF9E0F4
:100740008F2E9924F02D8C0E9D1EE0E0F0E00F2EF0
:10075000FBE8AF2EF3E0BF2EF02D1CC0D4014D916D
:100760005D916D917C91139714960D911D912D9132
:100770003C911797411551056105710509F44BC06E
:1007800088E090E0880E991E0115110521053105BC
:1007900009F444C0CF01FF230CF407966C01D594F3
:1007A000C794D594C794D594C794C5018C0D9D1D4D
:1007B000DC01EC90EE0CEC924017510762077307D6
:1007C00018F48E2D81608C933196E832F10531F664
:1007D00080918F0390E0EBE8F3E04081218130E0ED
:1007E000240F311D4281240F311D4381240F311DFF
:1007F000307082179307A9F482E090E014C080E083
:1008000090E011C080E090E00EC080E090E00BC06E
:1008100080E090E008C080E090E005C080E090E0DB
:1008200002C080E090E0C05CDE4F0FB6F894DEBFFF
:100830000FBECDBFDF91CF911F910F91FF90EF9031
:10084000DF90CF90BF90AF909F908F90089526E655
:1008500036E646EE5FE30E94922020E030E040E082
:1008600052E40E946F1F462F572F682F792FCB011C
:10087000BA010895EF92FF920F931F93CF93DF93E6
:10088000D82FC0918D036C2F6F7770E080E090E0DF
:100890000E940620462F572F682F792FCB01BA01CF
:1008A00020E030E040E853E40E949220E62EF72E4C
:1008B000182F092F60918E0370E080E090E00E9475
:1008C0000620512F402F0E2D1F2D252F342FA9012B
:1008D00098010E946F1F462F572F682F792FCB0149
:1008E000BA012DEC3CEC4CEC5DE30E949220462FCB
:1008F000572F682F792FCB01BA01CC230CF49058D5
:10090000DD2311F00E9427040E94D31F862F972F0A
:10091000DF91CF911F910F91FF90EF9008950F936A
:100920001F93CF93DF9360918B0370E080E090E0A2
:100930000E940420462F572F682F792FCB01BA0130
:1009400020E030E040E853E40E949220162FD72F99
:10095000C82F092F60918C0370E080E090E00E9426
:100960000620402F012F1D2F2C2F342FA901980175
:100970000E946F1F462F572F682F792FCB01BA0186
:100980002DEC3CEC4CEC5DE30E949220462F572F5F
:10099000682F792FCB01BA01DF91CF911F910F9171
:1009A0000895813081F0E1ECF0E0808188618083FE
:1009B000E2ECF0E080818660808383E38093C40072
:1009C0001092C5000895E9ECF0E080818861808391
:1009D000EAECF0E080818660808383E38093CC0042
:1009E0001092CD000895813021F08091C000807276
:1009F00008958091C80080720895813021F080911F
:100A0000C000807408958091C8008074089581307A
:100A100021F08091C000807808958091C80080788E
:100A20000895813029F48091C800882384F00895C6
:100A30008091C0008823ACF4A6ECB0E0E0ECF0E0DC
:100A40008C918093910380818823D4F30895AEEC38
:100A5000B0E0E8ECF0E08C918093910380818823F2
:100A6000D4F30895613041F0E0ECF0E0908195FF1F
:100A7000FDCF8093C6000895E8ECF0E0908195FFEB
:100A8000FDCF8093CE000895813041F0E0ECF0E09E
:100A900080818823ECF78091C6000895E8ECF0E0AF
:100AA00080818823ECF78091CE0008958FEF84B980
:100AB00085B1836085B985B1806A85B980E58CBDD3
:100AC00081E08DBD87EA91E60197F1F700C0000053
:100AD0000895299A81EE94E00197F1F700C0000093
:100AE000299887E893E10197F1F700C00000299A5F
:100AF0008BE792E90197F1F700C000000895289A6A
:100B00008EBD0DB407FEFDCF089528988EBD0DB49F
:100B100007FEFDCF08950E94690581E00E948505CA
:100B200089EB0E9485058FEF0E947F0583E80E9474
:100B30007F0587E50E947F058FE59AEEA0E0815052
:100B40009040A040E1F700C0000083EB0E948505C3
:100B500080E80E947F0580E00E947F0586E00E9479
:100B60007F0586E00E947F0586EB0E94850585E271
:100B70000E947F0580EB0E94850588E60E947F0524
:100B80008CEC0E94850585E00E947F0581EB0E9428
:100B9000850580E00E947F0585E10E947F058CE14C
:100BA0000E947F058CE10E947F0583E80E947F05FB
:100BB0008AEA0E947F0580EC0E94850580E50E94FC
:100BC0007F0580E50E947F0581E00E947F058CE320
:100BD0000E947F058EE10E947F0588E00E947F05CC
:100BE00084EB0E94850582E00E947F0580E40E94DC
:100BF0007F0580E00E947F058AE20E947F058AE2ED
:100C00000E947F058DE00E947F0588E70E947F0596
:100C100080EE0E94850582E00E947F058AE00E94A6
:100C20007F0581E10E947F058DE10E947F0583E2BF
:100C30000E947F0585E30E947F0581E40E947F0575
:100C40008BE40E947F058BE40E947F0582E40E9472
:100C50007F058AE30E947F0587E20E947F058BE182
:100C60000E947F0588E00E947F0589E00E947F0541
:100C700083E00E947F0582E00E947F058AE00E9457
:100C80007F0581E10E947F058DE10E947F0583E25F
:100C90000E947F0585E30E947F0581E40E947F0515
:100CA0008BE40E947F058BE40E947F0582E40E9412
:100CB0007F058AE30E947F0587E20E947F058BE122
:100CC0000E947F0588E00E947F0589E00E947F05E1
:100CD00083E00E947F0580E00E947F0581E00E9402
:100CE0007F058AE30E94850585E50E947F0586E3EE
:100CF0000E94850580EC0E947F0585E30E948505A2
:100D000080E00E947F0584E40E94850580E00E94C7
:100D10007F0582E00E947F0581E10E948505ABE7A7
:100D2000B2E91197F1F700C0000089E20E94850541
:100D300083ED90E30197F1F700C00000A7EAB1E668
:100D40001197F1F700C0000083E10E94850583EC54
:100D500099E00197F1F700C000000895CF92DF926B
:100D6000EF92FF920F931F93CF93DF93F82EE92E0C
:100D7000C62FD72F142F052FC22ED32E8AE20E9402
:100D800085058E2D0E947F058F2D0E947F05802F67
:100D90000E947F05812F0E947F058BE20E948505BE
:100DA0008D2F0E947F058C2F0E947F058D2D0E9424
:100DB0007F058C2D0E947F058CE20E948505DF91C6
:100DC000CF911F910F91FF90EF90DF90CF900895FA
:100DD000CF93DF93D42FC52FAC014F5F5F4F9B01A3
:100DE0002F5F3F4F0E94AE06289ACEBD0DB407FE7E
:100DF000FDCFDEBD0DB407FEFDCFDF91CF9108958D
:100E00000F931F93CF93DF93FC018A01D22FC32F3F
:100E100021E0803492076CF581E0603E78074CF564
:100E2000CB01840F951F019721E0803E92072CF0A3
:100E300080EE91E08C01061B170B9B01200F311FE8
:100E4000215030408E2F9F2F4E2F5F2F0E94AE06D5
:100E5000289A0AC0CEBD0DB407FEFDCFDEBD0DB48D
:100E600007FEFDCF015010400115110599F785B11E
:100E700085B9DF91CF911F910F9108950F931F9323
:100E8000CF93DF93FB018A01D22FC32F21E080345F
:100E9000920764F541E0603E740744F59C01200F21
:100EA000311F2150304041E0203434072CF020E441
:100EB00031E08901081B190BAC01400F511F415053
:100EC00050406E2F7F2F2E2F3F2F0E94AE06289A64
:100ED0000AC0CEBD0DB407FEFDCFDEBD0DB407FECA
:100EE000FDCF015010400115110599F7DF91CF9109
:100EF0001F910F910895EF92FF920F931F93CF933D
:100F0000DF93FC01EA01790121E0803492070CF0C3
:100F10004AC081E0603E78070CF045C0CF01840FE5
:100F2000951F019721E08034920724F0C0E4D1E0BE
:100F3000CE1BDF0BCB018E0D9F1D019721E0803E64
:100F400092072CF080EE91E07C01E61AF70ACF01BF
:100F50008C0F9D1FAC01415050409B012E0D3F1D39
:100F600021503040CF010E94AE06289A1E141F0463
:100F7000A4F019C0832F922F1EBD0DB407FEFDCF24
:100F80000EBD0DB407FEFDCF0197B1F70894E1083F
:100F9000F108E114F10419F406C03C2F2D2F1C16A2
:100FA0001D0644F3F3CFDF91CF911F910F91FF9076
:100FB000EF9008950F931F938C0180E090E060E024
:100FC00070E040E451E020EE31E00E947B071F9189
:100FD0000F9108952F923F924F925F926F927F925E
:100FE0008F929F92AF92BF92CF92DF92EF92FF9239
:100FF0000F931F93CF93DF93CDB7DEB72C970FB628
:10100000F894DEBF0FBECDBF9A8389837C836B8348
:10101000490150E0CA01880F991F880F991F9C0150
:10102000240F351F38872F830F2EF5E05F2EF02D0C
:101030004424402F50E05E834D835A015B815987E1
:101040008C818A87242D30E08F819885820F931FB1
:1010500084579F4FFC0114914D815E81249FC001F4
:10106000259F900D349F900D112469807A80680E21
:10107000791EC984DA84EE24FF2429803A80220E66
:10108000331E1B870C875B8550FF13C08C85813016
:1010900049F46B817C816E0D7F1DC101A4010E940A
:1010A000E80607C0C301B601A501950184010E94AD
:1010B0007B079B8596959B870894E11CF11CCA0CC5
:1010C000DB1CE8E0EE16F104F1F60C8543945A942B
:1010D00009F0B8CF2C960FB6F894DEBF0FBECDBF87
:1010E000DF91CF911F910F91FF90EF90DF90CF9004
:1010F000BF90AF909F908F907F906F905F904F9038
:101100003F902F9008956F927F928F929F92AF920F
:10111000BF92CF92DF92EF92FF920F931F93CF93E4
:10112000DF93EC016B014901102F802F90E09C01AF
:10113000220F331F820F931F5C01AA0CBB1CE42EED
:10114000F52E6624772413C0CE01B6019401012F39
:101150000E94EA07CA0DDB1DCE01059621E080340E
:10116000920728F08AE090E0C80ED91EE301F7014B
:1011700041917F01442341F7DF91CF911F910F915E
:10118000FF90EF90DF90CF90BF90AF909F908F90A7
:101190007F906F900895882311F081E201C080E272
:1011A0000E94850508952F923F924F925F926F9211
:1011B0007F928F929F92AF92BF92CF92DF92EF92E7
:1011C000FF920F931F93CF93DF9300D000D000D0F6
:1011D000CDB7DEB74C015B017A016901640F751F61
:1011E000A9010E94E806B5016E197F09C401A60194
:1011F0000E94E806C4018E0D9F1DB501A6010E9444
:10120000E806C4018E199F09B501A6010E94E806EF
:101210001E141F040CF07CC081E090E03C016E18AD
:101220007F08882799278E199F099C01220F331F59
:101230003C832B8300E010E081E090E09A83898377
:10124000772054F00894E108F108EB81FC81329694
:10125000FC83EB836E0E7F1E0F5F1F4F29813A8147
:101260002E5F3F4F3A832983620E731E2801480C7C
:10127000591CC5018E0D9F1D9E838D83C2016D81FA
:101280007E81A6010E94E8061401201A310AC101DC
:101290006D817E81A6010E94E806F501EE19FF0925
:1012A000FE83ED83C201BF01A6010E94E806C101D1
:1012B0006D817E81A6010E94E80624014E0C5F1C10
:1012C00098012A0D3B1D3E832D83C201B901A60161
:1012D0000E94E80614012E183F08C1016D817E812D
:1012E000A6010E94E806C501801B910B9E838D8399
:1012F000C2016D817E81A6010E94E806C1016D8157
:101300007E81A6010E94E8060E151F050CF498CFF9
:1013100026960FB6F894DEBF0FBECDBFDF91CF91FA
:101320001F910F91FF90EF90DF90CF90BF90AF9003
:101330009F908F907F906F905F904F903F902F90F5
:1013400008952F923F924F925F926F927F928F9269
:101350009F92AF92BF92CF92DF92EF92FF920F9344
:101360001F93CF93DF93CDB7DEB72E970FB6F894C8
:10137000DEBF0FBECDBF9A8389837C836B83280138
:10138000141615060CF0C2C081E090E07C01E41A4E
:10139000F50A88279927841B950B1C01220C331C06
:1013A0006B010894C108D108A980BA800894A108EB
:1013B000B1084B010894811C911C69807A800894C3
:1013C000611C711C5E874D8700E010E0822F90E069
:1013D0009C01247030703E832D83FC01E270F0701C
:1013E000F887EF839C01287030703A872987FC01C9
:1013F000E170F070FC87EB87FF2064F02D853E855F
:10140000215030403E872D8782E090E0280E391E23
:10141000E20CF31C0F5F1F4FC801880F991F019644
:10142000E80EF91EED81FE813097A1F06B817C8181
:101430002D853E85620F731FC301A2010E94E8063D
:1014400089819A81ED85FE858E0F9F1FB401A201CF
:101450000E94E8062F81388521153105A1F06B81A6
:101460007C818D859E85681B790BC301A2010E943A
:10147000E80689819A81ED85FE858E0F9F1FB60152
:10148000A2010E94E80629853A8521153105A1F0BF
:1014900089819A81ED85FE858E1B9F0BB401A20187
:1014A0000E94E8066B817C812D853E85620F731F4B
:1014B000C501A2010E94E8068B859C850097A1F0DA
:1014C00089819A81ED85FE858E1B9F0BB601A20155
:1014D0000E94E8066B817C812D853E85621B730B23
:1014E000C501A2010E94E8060894C108D108089429
:1014F000A108B1080894811C911C0894611C711CFE
:101500008D859E85081719070CF476CF2E960FB699
:10151000F894DEBF0FBECDBFDF91CF911F910F9129
:10152000FF90EF90DF90CF90BF90AF909F908F9003
:101530007F906F905F904F903F902F9008952F92E3
:101540003F924F925F926F927F928F929F92AF9253
:10155000BF92CF92DF92EF92FF920F931F93CF93A0
:10156000DF93CDB7DEB72A970FB6F894DEBF0FBE74
:10157000CDBF2C017E836D8318870F83170114164E
:1015800015060CF091C081E090E08C01041B150B56
:1015900088279927841B950B3C01660C771C5B01FF
:1015A0000894A108B1088F80988483E090E0880EA9
:1015B000991E5A874987EE24FF24CC24DD24C39446
:1015C000822F90E0FC01E170F070FA83E9839C01C6
:1015D000227030703C832B8311235CF089859A85BF
:1015E00001979A878987E2E0F0E06E0E7F1E060D74
:1015F000171D0894E11CF11C22E030E0C20ED31E3E
:101600000C0D1D1D89819A810097F1F06D817E81FD
:10161000E985FA856E1B7F0BAF01440F551F4F5FA5
:101620005F4F2F813885420F531FC701840D951DD1
:1016300091010E94000789859A85840D951DB50149
:10164000A40191010E9400078B819C810097F9F011
:101650006D817E81E985FA856E1B7F0BAF01440F9A
:10166000551F4F5F5F4F2F813885420F531FC201B7
:101670008E199F0991010E940007C201E985FA8530
:101680008E1B9F0BB501A40191010E9400070894D5
:10169000A108B10822E030E0820E931E89859A8568
:1016A000E816F9060CF498CF2A960FB6F894DEBF28
:1016B0000FBECDBFDF91CF911F910F91FF90EF90A3
:1016C000DF90CF90BF90AF909F908F907F906F9062
:1016D0005F904F903F902F900895CF92DF92EF92BE
:1016E000FF920F931F93CF93DF938C016B01EA015D
:1016F0007901641B750B440F551F4F5F5F4F0E94AC
:101700000007C801B601AE0123E000E010E00E942E
:101710009F0ADF91CF911F910F91FF90EF90DF9083
:10172000CF900895AF92BF92CF92DF92EF92FF9247
:101730000F931F93CF93DF93EC017B016A01590153
:1017400098010E943E07B7016A0D7B1D61507040F1
:10175000CE01A60198010E943E07CE01B701A50166
:1017600098010E940007CC0DDD1DCE010197B70145
:10177000A50198010E940007DF91CF911F910F9161
:10178000FF90EF90DF90CF90BF90AF900895AF9211
:10179000BF92CF92DF92EF92FF920F931F93CF935E
:1017A000DF935B0169017801EC01C40FD51F8C1731
:1017B0009D0764F48C01C801B501A60197010E9440
:1017C00000070F5F1F4F0C171D07ACF3DF91CF9180
:1017D0001F910F91FF90EF90DF90CF90BF90AF904F
:1017E00008952F923F924F925F926F927F928F92C5
:1017F0009F92AF92BF92CF92DF92EF92FF920F93A0
:101800001F93CF93DF9300D000D0CDB7DEB74C014C
:101810005B011A01290168013C01600E711E8827D5
:101820009927801B910B8C01000F111FC801840F99
:10183000951F9C838B83C3014B815C8197010E9420
:101840003E07F501E40DF51DFA83E983BF01615000
:101850007040C3014B815C8197010E943E07AC0C34
:10186000BD1C040D151DC401B501A80197010E94FE
:101870000007820C931CC4010197B501A8019701D0
:101880000E940007C301B501A60121E087010E9463
:10189000A109C4018C199D094C0108948108910883
:1018A000C401B501A60122E00E94A109A980BA8065
:1018B000AC18BD080894A108B108C401B501A6017F
:1018C00024E00E94A109C301B501A60128E00E94FD
:1018D000A1090F900F900F900F90DF91CF911F9162
:1018E0000F91FF90EF90DF90CF90BF90AF909F90BF
:1018F0008F907F906F905F904F903F902F900895C2
:101900002F923F924F925F926F927F928F929F920F
:10191000AF92BF92CF92DF92EF92FF920F931F93FD
:10192000CF93DF9300D000D0CDB7DEB72C014B01B1
:101930001A0139011C830B839801280F391F3A8340
:101940002983C801909581959F4F6C01CC0CDD1CBB
:10195000A601420D531DC901930187010E947B0717
:101960008B819C81880E991EC601860D971D6C0186
:101970000894C108D108C201820D931DEB81FC813E
:101980008E1B9F0B0197B401AF0121E086010E94DD
:101990009F0A89819A81B4014B815C8122E00E9477
:1019A0009F0A0F900F900F900F90DF91CF911F9192
:1019B0000F91FF90EF90DF90CF90BF90AF909F90EE
:1019C0008F907F906F905F904F903F902F900895F1
:1019D0002F923F924F925F926F927F928F929F923F
:1019E000AF92BF92CF92DF92EF92FF920F931F932D
:1019F000CF93DF937C016B015A01A9013801C90122
:101A0000861B970B1AF4909581959F4F95012E197F
:101A10003F091AF4309521953F4F882499248394E7
:101A20002817390714F0882499248114910451F05F
:101A30009A2D8B2D5A01492F582F9E2D8F2D7601CF
:101A4000C92ED82EAE14BF0454F49C2D8D2D6A01DE
:101A5000492F582F9E2D8F2D7501A92EB82ECA0102
:101A60008C199D091AF4909581959F4F8C01C4168D
:101A7000D50624F422243324239403C022242A9458
:101A8000322CAE14BF041CF125014E185F08E20190
:101A90000AF42196D595C7958114910431F0C601B9
:101AA000B701A3010E94E80605C0C701B601A30162
:101AB0000E94E806C01BD10B22F4C20CD31CC40D3B
:101AC000D51D0894E11CF11CAE14BF042CF7DF9166
:101AD000CF911F910F91FF90EF90DF90CF90BF902B
:101AE000AF909F908F907F906F905F904F903F90BE
:101AF0002F9008954F925F926F927F928F929F9254
:101B0000AF92BF92CF92DF92EF92FF920F931F930B
:101B1000CF93DF933C012B015A014901E801860173
:101B20000E94E80CC501B401AE0197010E94E80CC7
:101B3000CE01B701A30192010E94E80CDF91CF9181
:101B40001F910F91FF90EF90DF90CF90BF90AF90DB
:101B50009F908F907F906F905F904F9008952F92FD
:101B60003F924F925F926F927F928F929F92AF922D
:101B7000BF92CF92DF92EF92FF920F931F93CF937A
:101B8000DF93CDB7DEB7A8970FB6F894DEBF0FBED0
:101B9000CDBF1C017E836D83588B4F873A83298389
:101BA00018A30F8FFA8AE98ADE86CD8626173707B3
:101BB0005CF49D818E813E832D8399838A83922D4F
:101BC000832D1A019F87888B49815A8169897A8977
:101BD0006417750774F499818A817A836983998B74
:101BE0008A8B9F858889EF8DF8A1F88BEF879F8F6F
:101BF00088A32D813E8149815A814217530764F49D
:101C00009D818E815E834D8399838A83922D832D5E
:101C10002F8438889F87888B8D819E81A989BA8976
:101C20008A179B0759F5EF85F889E215F30534F01B
:101C30002E163F063CF0A101C10107C0A1018F850E
:101C4000988903C04F855889C1012F8D38A1281765
:101C5000390724F04217530724F005C08F8D98A14F
:101C600002C04F8D58A1481B590B4F5F5F4F6D81CC
:101C70007E812D853E850E943E073EC12F85388995
:101C80002219330989819A814D815E81841B950BCC
:101C90006F8D78A1621973097AA369A3A989BA899A
:101CA000A41BB50BBCA3ABA3E989FA8949815A816E
:101CB000E41BF50BFEA3EDA369897A894617570744
:101CC00029F0415050405A87498704C0A981BA8100
:101CD000BA87A987ED81FE8149855A854E175F072E
:101CE0000CF470C08F01CC24DD2476018824992463
:101CF0005401AC01662757FD6095762F4B8B5C8BAA
:101D00006D8B7E8B6BA17CA12B01662457FC6094AC
:101D1000762CC901AA2797FDA095BA2F8F8B988F93
:101D2000A98FBA8F29A13AA1442737FD4095542F96
:101D30002B8F3C8F4D8F5E8FC501B4012B893C8961
:101D40004D895E890E94F520B101620F731F78A74B
:101D50006FA3C701B601A30192010E94F520A10162
:101D6000420F531F8F89988DA98DBA8D880E991EA9
:101D7000AA1EBB1E6B8D7C8D8D8D9E8DC60ED71EB3
:101D8000E81EF91E8FA198A54817590734F48FA1B2
:101D900098A558A74FA3482F592FAFA1B8A54A1B04
:101DA0005B0B4F5F5F4FCD01B8012D853E850E94D3
:101DB0003E070F5F1F4FE985FA85E017F1070CF02A
:101DC000BBCF02C00D811E8129893A8920173107B6
:101DD0000CF492C04F8D58A16F857889461B570B24
:101DE000C801A981BA818A1B9B0B849F9001859FA2
:101DF000300D949F300D11244901AA2497FCA09422
:101E0000BA2CC801ED81FE818E1B9F0B69A17AA1BE
:101E1000869F9001879F300D969F300D1124690198
:101E2000EE24D7FCE094FE2C8DA19EA1AA2797FD5D
:101E3000A095BA2F89839A83AB83BC836BA17CA1C5
:101E4000882777FD8095982F6D837E838F83988771
:101E5000CA01AA2797FDA095BA2F89879A87AB87D1
:101E6000BC87A9A1BAA12D01662457FC6094762CE9
:101E7000C501B40129813A814B815C810E94F52022
:101E8000EF85F889E20FF31FFC8BEB8BC701B601DE
:101E90002D813E814F8158850E94F520A101420F7E
:101EA000531F69857A858B859C85860E971EA81E93
:101EB000B91EC40CD51CE61CF71C8B899C894817DD
:101EC000590734F49B898C895C8B4B8B492F582F95
:101ED000AB89BC894A1B5B0B4F5F5F4FCD01B801DB
:101EE0002D853E850E943E070F5F1F4FE989FA89C5
:101EF000E017F1070CF0BCCFA8960FB6F894DEBF40
:101F00000FBECDBFDF91CF911F910F91FF90EF904A
:101F1000DF90CF90BF90AF909F908F907F906F9009
:101F20005F904F903F902F9008950E9456050E9419
:101F30008B050895AF92CF92EF92FF920F931F936C
:101F4000FC01718360834283238315830483F782BA
:101F5000E682C086A1861F910F91FF90EF90CF90EF
:101F6000AF900895CF93DC01FA01662361F08D9163
:101F70009C9111978130910589F481E012968C93A0
:101F80001297C0EF0EC08D919C91119781309105F1
:101F900039F412961C921297C0E003C0C0E001C051
:101FA000C0E0222359F0808191818230910569F44B
:101FB00081E012968C931297CF6007C08081918147
:101FC0008230910511F41282C07F80918A038C17B0
:101FD00059F08C2F61E00E94320581E00E94FD04DF
:101FE0008823D9F3C0938A03CF9108954F925F92CB
:101FF0006F927F928F92AF92CF92DF92EF92FF9289
:102000000F931F93CF93DF93CDB7DEB73C0126012B
:1020100081E0D30116968C93169711967C936E935C
:1020200013965C934E93129714962C9314971596CF
:102030000C9315971F96FC92EE921E975196DC9288
:10204000CE92509787E01B968C931B971A961C9202
:102050001A9788E01D968C931D978EE11C968C93A1
:102060008AE090E00E943221082F192FF301138B90
:10207000028B8AE090E00E943221D30154968C9327
:10208000549755969C9355971896AC921897199615
:102090008C92199781E090E0F801918380835496A7
:1020A000ED91FC91559782E090E091838083529668
:1020B0008D919C91539761E070E040E020E000E05A
:1020C00010E01A96CC901A971B96AC900E949A0F2B
:1020D000D30154968D919C91559762E070E040E059
:1020E00020E072011C96CC901C971D96AC900E942B
:1020F0009A0FDF91CF911F910F91FF90EF90DF909A
:10210000CF90AF908F907F906F905F904F90089599
:10211000EF92FF920F931F93CF93DF93CDB7DEB76C
:10212000C054D1400FB6F894DEBF0FBECDBF7C01C6
:1021300000D000D000D0EDB7FEB73196CE010196A9
:10214000ADB7BEB712969C938E93119780E091E045
:1021500093838283D70114968C91848315820E9485
:10216000CE22DE01AF5BBF4FE3E0F1E08EE00190F5
:102170000D928150E1F7EDB7FEB736960FB6F894A1
:10218000FEBF0FBEEDBF8E010F5B1F4FC801BE012A
:102190006F5F7F4F0E948422F80101900020E9F7D1
:1021A00031978AE390E091838083D70115962C9133
:1021B00015972A3048F4F80101900020E9F731978B
:1021C00080E390E09183808300D000D000D0EDB711
:1021D000FEB731968E010F5F1F4FADB7BEB7129697
:1021E0001C930E93119780E091E093838283248364
:1021F00015820E94CE22EDB7FEB736960FB6F89440
:10220000FEBF0FBEEDBFCE018F5B9F4FB8010E9496
:10221000842281E090E060E070E0AE014F5B5F4FB0
:1022200020EE37E002E00E948308C05CDE4F0FB66C
:10223000F894DEBF0FBECDBFDF91CF911F910F91FC
:10224000FF90EF9008950F931F93CF93DF93CDB737
:10225000DEB7C054D1400FB6F894DEBF0FBECDBF7D
:1022600000D000D000D0EDB7FEB731969E012F5FB1
:102270003F4FADB7BEB712963C932E93119720E017
:1022800031E033832283DC018D919C91958384839B
:102290000E94CE22DE01AF5BBF4FE1E1F1E08EE0B4
:1022A00001900D928150E1F78DB79EB706960FB65B
:1022B000F8949EBF0FBE8DBF8E010F5B1F4FC801EC
:1022C000BE016F5F7F4F0E948422D8010D900020D5
:1022D000E9F71197EFE1F1E083E001900D92815071
:1022E000E1F781E090E069E170E0AE014F5B5F4FA4
:1022F00020EE37E002E00E948308C05CDE4F0FB69C
:10230000F894DEBF0FBECDBFDF91CF911F910F912B
:1023100008950F931F93CF93DF93CDB7DEB7C054CB
:10232000D1400FB6F894DEBF0FBECDBF00D000D0B5
:1023300000D0EDB7FEB731969E012F5F3F4FADB78E
:10234000BEB712963C932E93119720E031E0338371
:102350002283DC0112968D919C911397958384833F
:102360000E94CE22DE01AF5BBF4FE2E2F1E082E1EC
:1023700001900D928150E1F78DB79EB706960FB68A
:10238000F8949EBF0FBE8DBF8E010F5B1F4FC8011B
:10239000BE016F5F7F4F0E948422F80101900020F0
:1023A000E9F7319785E290E09183808381E090E0C6
:1023B00062E370E0A80120EE37E002E00E948308AB
:1023C000C05CDE4F0FB6F894DEBF0FBECDBFDF910D
:1023D000CF911F910F910895EF92FF920F931F934A
:1023E000CF93DF93CDB7DEB7C054D1400FB6F8948A
:1023F000DEBF0FBECDBF7C0100D000D000D0EDB756
:10240000FEB73196CE010196ADB7BEB712969C933A
:102410008E93119780E091E093838283D701149685
:102420008C91848315820E94CE22DE01AF5BBF4F68
:10243000E3E0F1E08EE001900D928150E1F7EDB71D
:10244000FEB736960FB6F894FEBF0FBEEDBF8E01F5
:102450000F5B1F4FC801BE016F5F7F4F0E94842238
:10246000F80101900020E9F731978AE390E0918329
:102470008083D70115962C9115972A3048F4F801DE
:1024800001900020E9F7319780E390E09183808309
:1024900000D000D000D0EDB7FEB731968E010F5FAF
:1024A0001F4FADB7BEB712961C930E93119780E0E5
:1024B00091E093838283248315820E94CE22EDB71C
:1024C000FEB736960FB6F894FEBF0FBEEDBFCE0135
:1024D0008F5B9F4FB8010E94842281E090E060E012
:1024E00070E0AE014F5B5F4F20E030E002E00E9401
:1024F0008308C05CDE4F0FB6F894DEBF0FBECDBFC1
:10250000DF91CF911F910F91FF90EF9008950F935E
:102510001F93CF93DF93CDB7DEB7C054D1400FB632
:10252000F894DEBF0FBECDBF00D000D000D0EDB715
:10253000FEB731969E012F5F3F4FADB7BEB71296E3
:102540003C932E93119720E031E033832283DC010A
:102550008D919C91958384830E94CE22DE01AF5B96
:10256000BF4FE1E1F1E08EE001900D928150E1F783
:102570008DB79EB706960FB6F8949EBF0FBE8DBF5F
:102580008E010F5B1F4FC801BE016F5F7F4F0E941E
:102590008422D8010D900020E9F71197EFE1F1E0D6
:1025A00083E001900D928150E1F781E090E069E1D4
:1025B00070E0AE014F5B5F4F20E030E002E00E9430
:1025C0008308C05CDE4F0FB6F894DEBF0FBECDBFF0
:1025D000DF91CF911F910F9108950F931F93CF9388
:1025E000DF93CDB7DEB7C054D1400FB6F894DEBF4D
:1025F0000FBECDBF00D000D000D0EDB7FEB73196F2
:102600009E012F5F3F4FADB7BEB712963C932E93FE
:10261000119720E031E033832283DC0112968D9103
:102620009C911397958384830E94CE22DE01AF5B39
:10263000BF4FE2E2F1E082E101900D928150E1F7BB
:102640008DB79EB706960FB6F8949EBF0FBE8DBF8E
:102650008E010F5B1F4FC801BE016F5F7F4F0E944D
:102660008422F80101900020E9F7319785E290E09B
:102670009183808381E090E062E370E0A80120E034
:1026800030E002E00E948308C05CDE4F0FB6F89491
:10269000DEBF0FBECDBFDF91CF911F910F91089587
:1026A000EF92FF920F931F93CF93DF93CDB7DEB7D7
:1026B000C054D1400FB6F894DEBF0FBECDBF7C0131
:1026C00000D000D000D0EDB7FEB73196CE01019614
:1026D000ADB7BEB712969C938E93119780E091E0B0
:1026E00093838283D7011B968C91848315820E94E9
:1026F000CE22DE01AF5BBF4FE4E3F1E081E1019068
:102700000D928150E1F7EDB7FEB736960FB6F8940B
:10271000FEBF0FBEEDBF8E010F5B1F4FC801BE0194
:102720006F5F7F4F0E948422F80101900020E9F73B
:1027300031978AE390E091838083D7011A962C9198
:102740001A972A3048F4F80101900020E9F73197F0
:1027500080E390E09183808300D000D000D0EDB77B
:10276000FEB731968E010F5F1F4FADB7BEB7129601
:102770001C930E93119780E091E0938382832483CE
:1027800015820E94CE22EDB7FEB736960FB6F894AA
:10279000FEBF0FBEEDBFCE018F5B9F4FB8010E9401
:1027A000842281E090E064E670E0AE014F5B5F4F11
:1027B00020EE37E002E00E948308C05CDE4F0FB6D7
:1027C000F894DEBF0FBECDBFDF91CF911F910F9167
:1027D000FF90EF9008950F931F93CF93DF93CDB7A2
:1027E000DEB7C054D1400FB6F894DEBF0FBECDBFE8
:1027F00000D000D000D0EDB7FEB731969E012F5F1C
:102800003F4FADB7BEB712963C932E93119720E081
:1028100031E033832283DC011E968D919C911F97BA
:10282000958384830E94CE22DE01AF5BBF4FE5E437
:10283000F1E08EE001900D928150E1F78DB79EB7E7
:1028400006960FB6F8949EBF0FBE8DBF8E010F5B2C
:102850001F4FC801BE016F5F7F4F0E948422D801C5
:102860000D900020E9F71197E3E5F1E085E0019094
:102870000D928150E1F781E090E06DE770E0AE01EC
:102880004F5B5F4F20EE37E002E00E948308C05CA0
:10289000DE4F0FB6F894DEBF0FBECDBFDF91CF91F4
:1028A0001F910F9108950F931F93CF93DF93CDB78F
:1028B000DEB7C054D1400FB6F894DEBF0FBECDBF17
:1028C0008C0100D000D000D0EDB7FEB73196CE011C
:1028D0000196ADB7BEB712969C938E93119780E088
:1028E00091E093838283D80112968D919C911397E6
:1028F000958384830E94CE22EDB7FEB736960FB63D
:10290000F894FEBF0FBEEDBFD80116968C911697B6
:10291000882359F0DE01AF5BBF4FE8E5F1E083E1CA
:1029200001900D928150E1F70AC0DE01AF5BBF4F0D
:10293000EBE6F1E084E101900D928150E1F781E056
:1029400090E066E970E0AE014F5B5F4F20EE37E04C
:1029500002E00E948308C05CDE4F0FB6F894DEBF31
:102960000FBECDBFDF91CF911F910F910895EF92D0
:10297000FF920F931F93CF93DF93CDB7DEB7C05471
:10298000D1400FB6F894DEBF0FBECDBF7C0100D0A2
:1029900000D000D0EDB7FEB73196CE010196ADB7AD
:1029A000BEB712969C938E93119780E091E093832B
:1029B0008283D7011B968C91848315820E94CE223C
:1029C000DE01AF5BBF4FE4E3F1E081E101900D92E6
:1029D0008150E1F7EDB7FEB736960FB6F894FEBF1B
:1029E0000FBEEDBF8E010F5B1F4FC801BE016F5FB1
:1029F0007F4F0E948422F80101900020E9F731976F
:102A00008AE390E091838083D7011A962C911A97DC
:102A10002A3048F4F80101900020E9F7319780E36B
:102A200090E09183808300D000D000D0EDB7FEB756
:102A300031968E010F5F1F4FADB7BEB712961C9334
:102A40000E93119780E091E0938382832483158213
:102A50000E94CE22EDB7FEB736960FB6F894FEBFB1
:102A60000FBEEDBFCE018F5B9F4FB8010E94842245
:102A700081E090E064E670E0AE014F5B5F4F20E0E4
:102A800030E002E00E948308C05CDE4F0FB6F8948D
:102A9000DEBF0FBECDBFDF91CF911F910F91FF9091
:102AA000EF9008950F931F93CF93DF93CDB7DEB7C9
:102AB000C054D1400FB6F894DEBF0FBECDBF00D0DA
:102AC00000D000D0EDB7FEB731969E012F5F3F4F8B
:102AD000ADB7BEB712963C932E93119720E031E02C
:102AE00033832283DC011E968D919C911F979583E1
:102AF00084830E94CE22DE01AF5BBF4FE5E4F1E0AC
:102B00008EE001900D928150E1F78DB79EB7069649
:102B10000FB6F8949EBF0FBE8DBF8E010F5B1F4F87
:102B2000C801BE016F5F7F4F0E948422D8010D90C3
:102B30000020E9F71197E3E5F1E085E001900D92BF
:102B40008150E1F781E090E06DE770E0AE014F5B0E
:102B50005F4F20E030E002E00E948308C05CDE4F5F
:102B60000FB6F894DEBF0FBECDBFDF91CF911F919E
:102B70000F9108950F931F93CF93DF93CDB7DEB7D7
:102B8000C054D1400FB6F894DEBF0FBECDBF8C014C
:102B900000D000D000D0EDB7FEB73196CE0101963F
:102BA000ADB7BEB712969C938E93119780E091E0DB
:102BB00093838283D80112968D919C91139795836C
:102BC00084830E94CE22EDB7FEB736960FB6F894F6
:102BD000FEBF0FBEEDBFD80116968C9116978823C5
:102BE00059F0DE01AF5BBF4FE8E5F1E083E1019012
:102BF0000D928150E1F70AC0DE01AF5BBF4FEBE6FB
:102C0000F1E084E101900D928150E1F781E090E0E4
:102C100066E970E0AE014F5B5F4F20E030E002E01C
:102C20000E948308C05CDE4F0FB6F894DEBF0FBE73
:102C3000CDBFDF91CF911F910F910895EF92FF9239
:102C40000F931F93CF93DF93CDB7DEB7C054D1401E
:102C50000FB6F894DEBF0FBECDBF7C0100D000D010
:102C600000D0EDB7FEB73196CE010196ADB7BEB735
:102C700012969C938E93119780E091E093838283C8
:102C8000D7011D968C91848315820E94CE22DE018D
:102C9000AF5BBF4FEFE7F1E081E101900D92815012
:102CA000E1F7EDB7FEB736960FB6F894FEBF0FBE4C
:102CB000EDBF8E010F5B1F4FC801BE016F5F7F4FDD
:102CC0000E948422F80101900020E9F731978AE3FD
:102CD00090E091838083D7011C962C911C972A3019
:102CE00048F4F80101900020E9F7319780E390E083
:102CF0009183808300D000D000D0EDB7FEB731962D
:102D00008E010F5F1F4FADB7BEB712961C930E9387
:102D1000119780E091E093838283248315820E943F
:102D2000CE22EDB7FEB736960FB6F894FEBF0FBEB3
:102D3000EDBFCE018F5B9F4FB8010E94842281E0DE
:102D400090E068EC70E0AE014F5B5F4F20EE37E043
:102D500002E00E948308C05CDE4F0FB6F894DEBF2D
:102D60000FBECDBFDF91CF911F910F91FF90EF90DC
:102D700008950F931F93CF93DF93CDB7DEB7C05461
:102D8000D1400FB6F894DEBF0FBECDBF00D000D04B
:102D900000D0EDB7FEB731969E012F5F3F4FADB724
:102DA000BEB712963C932E93119720E031E0338307
:102DB0002283DC0150968D919C9151979583848359
:102DC0000E94CE22DE01AF5BBF4FE0E9F1E08EE072
:102DD00001900D928150E1F78DB79EB706960FB620
:102DE000F8949EBF0FBE8DBF8E010F5B1F4FC801B1
:102DF000BE016F5F7F4F0E948422D8010D9000209A
:102E0000E9F71197E3E5F1E085E001900D9281503B
:102E1000E1F781E090E061EE70E0AE014F5B5F4F63
:102E200020EE37E002E00E948308C05CDE4F0FB660
:102E3000F894DEBF0FBECDBFDF91CF911F910F91F0
:102E400008950F931F93CF93DF93CDB7DEB7C05490
:102E5000D1400FB6F894DEBF0FBECDBF8C0100D0BD
:102E600000D000D0EDB7FEB73196CE010196ADB7D8
:102E7000BEB712969C938E93119780E091E0938356
:102E80008283D80112968D919C91139795838483A8
:102E90000E94CE22EDB7FEB736960FB6F894FEBF6D
:102EA0000FBEEDBFD80117968C911797882359F064
:102EB000DE01AF5BBF4FEEE9F1E083E101900D92DF
:102EC0008150E1F70AC0DE01AF5BBF4FE1EBF1E0FB
:102ED00084E101900D928150E1F781E090E06AEF8A
:102EE00070E0AE014F5B5F4F20EE37E002E00E94E2
:102EF0008308C05CDE4F0FB6F894DEBF0FBECDBFB7
:102F0000DF91CF911F910F910895EF92FF920F9350
:102F10001F93CF93DF93CDB7DEB7C054D1400FB628
:102F2000F894DEBF0FBECDBF7C0100D000D000D032
:102F3000EDB7FEB73196CE010196ADB7BEB712968A
:102F40009C938E93119780E091E093838283D701C5
:102F50001D968C91848315820E94CE22DE01AF5B88
:102F6000BF4FEFE7F1E081E101900D928150E1F771
:102F7000EDB7FEB736960FB6F894FEBF0FBEEDBFA5
:102F80008E010F5B1F4FC801BE016F5F7F4F0E9414
:102F90008422F80101900020E9F731978AE390E05C
:102FA00091838083D7011C962C911C972A3048F47A
:102FB000F80101900020E9F7319780E390E09183D8
:102FC000808300D000D000D0EDB7FEB731968E01DF
:102FD0000F5F1F4FADB7BEB712961C930E9311979C
:102FE00080E091E093838283248315820E94CE2225
:102FF000EDB7FEB736960FB6F894FEBF0FBEEDBF25
:10300000CE018F5B9F4FB8010E94842281E090E047
:1030100068EC70E0AE014F5B5F4F20E030E002E013
:103020000E948308C05CDE4F0FB6F894DEBF0FBE6F
:10303000CDBFDF91CF911F910F91FF90EF90089539
:103040000F931F93CF93DF93CDB7DEB7C054D1401A
:103050000FB6F894DEBF0FBECDBF00D000D000D0B9
:10306000EDB7FEB731969E012F5F3F4FADB7BEB7AC
:1030700012963C932E93119720E031E03383228304
:10308000DC0150968D919C915197958384830E9489
:10309000CE22DE01AF5BBF4FE0E9F1E08EE00190B0
:1030A0000D928150E1F78DB79EB706960FB6F89452
:1030B0009EBF0FBE8DBF8E010F5B1F4FC801BE01AB
:1030C0006F5F7F4F0E948422D8010D900020E9F7A6
:1030D0001197E3E5F1E085E001900D928150E1F771
:1030E00081E090E061EE70E0AE014F5B5F4F20E069
:1030F00030E002E00E948308C05CDE4F0FB6F89417
:10310000DEBF0FBECDBFDF91CF911F910F9108950C
:103110000F931F93CF93DF93CDB7DEB7C054D14049
:103120000FB6F894DEBF0FBECDBF8C0100D000D02B
:1031300000D0EDB7FEB73196CE010196ADB7BEB760
:1031400012969C938E93119780E091E093838283F3
:10315000D80112968D919C911397958384830E9438
:10316000CE22EDB7FEB736960FB6F894FEBF0FBE6F
:10317000EDBFD80117968C911797882359F0DE017F
:10318000AF5BBF4FEEE9F1E083E101900D9281501A
:10319000E1F70AC0DE01AF5BBF4FE1EBF1E084E194
:1031A00001900D928150E1F781E090E06AEF70E0CC
:1031B000AE014F5B5F4F20E030E002E00E948308E9
:1031C000C05CDE4F0FB6F894DEBF0FBECDBFDF91FF
:1031D000CF911F910F9108950F93CF93DF93CDB7A8
:1031E000DEB7C050D1400FB6F894DEBF0FBECDBFE2
:1031F000DE011196E5ECF1E08AE001900D9281503C
:10320000E1F78EE690E06CE271E0AE014F5F5F4F58
:1032100020EE37E002E00E948308C050DF4F0FB677
:10322000F894DEBF0FBECDBFDF91CF910F9108950F
:10323000EF92FF920F931F93CF93DF93CDB7DEB73B
:10324000C054D1400FB6F894DEBF0FBECDBF7C0195
:10325000DC0118968C911897882309F459C052966E
:10326000ED91FC91539700D000D000D04DB75EB7E0
:103270004F5F5F4FCE010196ADB7BEB712969C93DC
:103280008E93119780E091E0DA0113969C938E93D0
:1032900012972681378184819581281B390B1596D9
:1032A0003C932E9314970E94CE22DE01AF5BBF4F5A
:1032B000EFECF1E089E001900D928150E1F7EDB77C
:1032C000FEB736960FB6F894FEBF0FBEEDBF8E0167
:1032D0000F5B1F4FC801BE016F5F7F4F0E948422AA
:1032E000D8010D900020E9F71197E8EDF1E08FE0AB
:1032F00001900D928150E1F781E090E065E471E08A
:10330000AE014F5B5F4F20EE37E002E00E94830882
:10331000D70119968C911997882309F459C05496AE
:10332000ED91FC91559700D000D000D04DB75EB71D
:103330004F5F5F4FCE010196ADB7BEB712969C931B
:103340008E93119780E091E0DA0113969C938E930F
:1033500012978681978124813581821B930B159664
:103360009C938E9314970E94CE22DE01AF5BBF4FD9
:10337000E7EEF1E089E001900D928150E1F7EDB7C1
:10338000FEB736960FB6F894FEBF0FBEEDBF8E01A6
:103390000F5B1F4FC801BE016F5F7F4F0E948422E9
:1033A000D8010D900020E9F71197E8EDF1E08FE0EA
:1033B00001900D928150E1F781E090E06EE571E0BF
:1033C000AE014F5B5F4F20EE37E002E00E948308C2
:1033D000C05CDE4F0FB6F894DEBF0FBECDBFDF91ED
:1033E000CF911F910F91FF90EF900895EF92FF9270
:1033F0000F931F93CF93DF93CDB7DEB7C054D14067
:103400000FB6F894DEBF0FBECDBF7C01DC0118966D
:103410008C911897882309F059C05296ED91FC9130
:10342000539700D000D000D04DB75EB74F5F5F4FCD
:10343000CE010196ADB7BEB712969C938E931197AD
:1034400080E091E0DA0113969C938E931297268187
:10345000378184819581281B390B15963C932E93D7
:1034600014970E94CE22DE01AF5BBF4FEFECF1E07C
:1034700089E001900D928150E1F7EDB7FEB73696E5
:103480000FB6F894FEBF0FBEEDBF8E010F5B1F4F4E
:10349000C801BE016F5F7F4F0E948422D8010D904A
:1034A0000020E9F71197E8EDF1E08FE001900D922F
:1034B0008150E1F781E090E065E471E0AE014F5B9F
:1034C0005F4F20E030E002E00E948308D7011996A8
:1034D0008C911997882309F059C05496ED91FC916D
:1034E000559700D000D000D04DB75EB74F5F5F4F0B
:1034F000CE010196ADB7BEB712969C938E931197ED
:1035000080E091E0DA0113969C938E931297868166
:10351000978124813581821B930B15969C938E9302
:1035200014970E94CE22DE01AF5BBF4FE7EEF1E0C1
:1035300089E001900D928150E1F7EDB7FEB7369624
:103540000FB6F894FEBF0FBEEDBF8E010F5B1F4F8D
:10355000C801BE016F5F7F4F0E948422D8010D9089
:103560000020E9F71197E8EDF1E08FE001900D926E
:103570008150E1F781E090E06EE571E0AE014F5BD4
:103580005F4F20E030E002E00E948308C05CDE4F25
:103590000FB6F894DEBF0FBECDBFDF91CF911F9164
:1035A0000F91FF90EF900895CF93DF93EC0180E0AF
:1035B00090E00E94DA07CE010E948810CE010E949E
:1035C0002311CE010E948911CE010E945013CE0119
:1035D0000E94EB13CE010E945314CE010E941E16CE
:1035E000CE010E94B916CE010E942117CE010E9481
:1035F000EC18CE010E941819DF91CF910895CF9356
:10360000DF93EC010E94EC118D818B3349F41D8214
:103610008C81873111F41C8205C08F5F8C8302C0BE
:103620008F5F8D83CE010E948810DF91CF91089526
:10363000EF92FF920F931F93CF93DF937C018B0147
:10364000EA010E94EC11CC33D1054CF4083111058C
:103650004CF4F701C5830483C1E0D0E005C0C0E0AD
:10366000D0E002C0C0E0D0E0C7010E9488108C2FDB
:103670009D2FDF91CF911F910F91FF90EF900895B3
:103680000F931F93CF93DF93EC018B010E94ED12F8
:103690001B830A83CE010E948911DF91CF911F9174
:1036A0000F9108950F931F93CF93DF93EC018B013C
:1036B0000E94871219830883CE010E942311DF9193
:1036C000CF911F910F9108951F93CF93DF93EC013A
:1036D000162F643150F40E9452151E871F86CE01AA
:1036E0000E94EB1381E090E002C080E090E0DF9167
:1036F000CF911F9108951F93CF93DF93EC01162F65
:10370000643150F40E942018188B198ACE010E944F
:10371000B91681E090E002C080E090E0DF91CF91A7
:103720001F9108951F93CF93DF93EC01162F8E8185
:10373000861739F0CE010E94BA151E83CE010E9471
:103740005314DF91CF911F9108951F93CF93DF936F
:10375000EC01162F8F81861739F0CE010E94881850
:103760001F83CE010E942117DF91CF911F910895F1
:103770000F931F93CF93DF93EC01162F042F683123
:1037800060F44C3368F40E94B7141B870A87CE019B
:103790000E94501381E090E005C080E090E002C0FC
:1037A00080E090E0DF91CF911F910F9108950F93EA
:1037B0001F93CF93DF93EC01162F042F683160F431
:1037C0004C3368F40E9485171D870C87CE010E9438
:1037D0001E1681E090E005C080E090E002C080E02D
:1037E00090E0DF91CF911F910F910895FC01A28984
:1037F000B3898685978517969C938E931697A28991
:10380000B389828518968C93A289B389838519968A
:103810008C93A289B389808512968C93A289B389EF
:10382000868113968C93A489B5898089918917968E
:103830009C938E931697A489B589848518968C934A
:10384000A489B589858519968C93A489B5898185C4
:1038500012968C93A489B589878113968C931397BC
:1038600008950F931F93CF93DF93CDB7DEB7C0506A
:10387000D1400FB6F894DEBF0FBECDBFBC01CE0164
:1038800001960E9498228981882381F08E010E5F23
:103890001F4F60E00E94320580E00E94FD048823F3
:1038A000D9F3F80181918F01882399F78AE060E0CC
:1038B0000E943205C050DF4F0FB6F894DEBF0FBE36
:1038C000CDBFDF91CF911F910F9108950F931F935B
:1038D000CF93DF9380E00E9407058823C9F080E042
:1038E0000E94440590E08A30910591F004E913E0CC
:1038F000C0E0D0E0F80181938F01219680E00E9422
:10390000440590E08A309105A9F7CC56DC4F188227
:1039100080E00E941105DF91CF911F910F910895D2
:10392000DF92EF92FF920F931F93CF93DF93CDB768
:10393000DEB7C050D1400FB6F894DEBF0FBECDBF8A
:103940000E94661CA4E9B3E0FD0101900020E9F7A4
:103950003197EA1BFB0BE230F10508F476C1CD018B
:1039600060EF71E00E947F22BC01CE0101960E94AF
:103970009822CE01019662EF71E00E948F22282FDB
:10398000392F2115310549F50AEF11E080E090E06B
:10399000B8010E947F220E9461227C0180E090E0B9
:1039A000B8010E947F220E946122AC0184E994E068
:1039B000B7010E94181B009729F08DEF91E00E943B
:1039C000311C04C080E192E00E94311C80E290E052
:1039D000909395038093940334C1CE01019664E2E1
:1039E00072E00E948F22282F392F2115310509F00E
:1039F0004FC00AEF11E080E090E0B8010E947F2202
:103A00000E9461227C0180E090E0B8010E947F2248
:103A10000E946122D82E80E090E0B8010E947F22AF
:103A20000E946122482F81E0E816F10489F484E9BC
:103A300094E06D2D0E94B81B009729F081E392E07D
:103A40000E94311C1EC084E592E00E94311C19C006
:103A500082E0E816F10489F484E994E06D2D0E9477
:103A6000D71B009729F08EE692E00E94311C09C016
:103A700084E592E00E94311C04C084E592E00E943B
:103A8000311C80E290E09093950380939403D9C019
:103A9000CE01019661E972E00E948F22282F392F12
:103AA0002115310509F045C00AEF11E080E090E0F2
:103AB000B8010E947F220E9461227C0180E090E098
:103AC000B8010E947F220E946122682F81E0E816DF
:103AD000F10481F484E994E00E94641B009729F0CA
:103AE00088E992E00E94311C1DC089EB92E00E949F
:103AF000311C18C082E0E816F10481F484E994E0F6
:103B00000E947B1B009729F081ED92E00E94311CFE
:103B100009C089EB92E00E94311C04C089EB92E05D
:103B20000E94311C80E290E090939503809394036F
:103B300088C0CE01019662EF72E00E948F22282F8A
:103B4000392F21153105A9F580E090E06AEF71E089
:103B50000E947F220E9461228130910561F4809150
:103B60009C048823B9F481E080939C0489EF92E05F
:103B70000E94311C13C08230910561F480919D0434
:103B8000882341F481E080939D0484E093E00E94C7
:103B9000311C04C08FE093E00E94311C84E994E062
:103BA0000E94181980E290E090939503809394030B
:103BB00048C0CE01019666E273E00E948F22282F52
:103BC000392F2115310599F580E090E06AEF71E019
:103BD0000E947F220E9461228130910559F48091D8
:103BE0009C048823A9F010929C048EE293E00E942A
:103BF000311C12C08230910559F480919D048823B4
:103C000039F010929D048AE393E00E94311C04C0B5
:103C100086E493E00E94311C84E994E00E94F61946
:103C200080E290E090939503809394030AC08EE520
:103C300093E00E94311C80E290E090939503809382
:103C4000940384E994E00E94F61B80E090E0C05069
:103C5000DF4F0FB6F894DEBF0FBECDBFDF91CF911F
:103C60001F910F91FF90EF90DF9008950F931F9396
:103C7000CF93DF93EC011C810D818885882389F027
:103C80001886CE010E94F619EA89FB898481958104
:103C900001969583848381E08887CE010E9418195C
:103CA00004C0EA89FB89158214828985882389F0FA
:103CB0001986CE010E94F619EC89FD8984819581CF
:103CC00001969583848381E08987CE010E9418192B
:103CD00004C0EC89FD8915821482EA89FB898185FB
:103CE000811761F48085801749F481E0888789EF26
:103CF00092E00E94311CCE010E941819EC89FD89C6
:103D00008185811761F48085801749F481E0898776
:103D100084E093E00E94311CCE010E941819EA89C8
:103D2000FB898481958126813781821793075CF016
:103D30008885882341F018868EE293E00E94311C2A
:103D4000CE010E94F619EC89FD8984819581268136
:103D50003781821793075CF08985882341F01986A3
:103D60008AE393E00E94311CCE010E94F619DF9194
:103D7000CF911F910F910895CF93DF9340918603C8
:103D80005091870360918803709189038091720339
:103D900090917303A0917403B0917503481759076C
:103DA0006A077B07D8F0109286031092870310925F
:103DB0008803109289038091820390918303A091DC
:103DC0008403B09185030196A11DB11D80938203E8
:103DD00090938303A0938403B0938503809186031B
:103DE00090918703A0918803B09189030196A11D4A
:103DF000B11D8093860390938703A0938803B093AB
:103E000089038091820390918303A0918403B091F0
:103E100085038C339105A105B10599F410928203B5
:103E200010928303109284031092850382B18F5FF6
:103E300082B9C4E9D4E0CE010E94FF1ACE010E94EB
:103E4000361EDF91CF9108958FEF81B912B80E948D
:103E500056050E948B0580E00E94D10481E00E94FB
:103E6000D104C4E9D4E0CE0162E070E04EE150E05C
:103E700026E00AE310E00F2EFAE3EF2EFF24F02DE8
:103E80000F2EFAE0CF2EDD24F02DAA2488240E94E4
:103E9000F60FCE010E94D41A62968E010A5010408D
:103EA000EE24FF246894E1F8EC0EFD1E0F2EF7EFD0
:103EB000CF2EFFEFDF2EF02DCC0EDD1E0E94901CCA
:103EC000F7014081518188819981F8016081F60173
:103ED00020810E94B20F0E94BC1EF0CF5058BB2719
:103EE000AA270ED0E5C0D6D030F0DBD020F031F4D8
:103EF0009F3F11F41EF4CBC00EF4E095E7FBC1C068
:103F0000E92FE7D080F3BA17620773078407950794
:103F100018F071F49EF5FFC00EF4E0950B2EBA2F49
:103F2000A02D0B01B90190010C01CA01A0011124BF
:103F3000FF27591B99F0593F50F4503E68F11A166B
:103F4000F040A22F232F342F4427585FF3CF4695FC
:103F500037952795A795F0405395C9F77EF41F161E
:103F6000BA0B620B730B840BBAF09150A1F0FF0FE8
:103F7000BB1F661F771F881FC2F70EC0BA0F621FD4
:103F8000731F841F48F4879577956795B795F795C4
:103F90009E3F08F0B3CF9395880F08F09927EE0F56
:103FA00097958795089504D06894B111B5C0089588
:103FB00098D088F09F5790F0B92F9927B751A0F06B
:103FC000D1F0660F771F881F991F1AF0BA95C9F7AD
:103FD00012C0B13081F09FD0B1E008959CC0672F2E
:103FE000782F8827B85F39F0B93FCCF3869577955D
:103FF0006795B395D9F73EF4909580957095619546
:104000007F4F8F4F9F4F0895E89409C097FB3EF470
:1040100090958095709561957F4F8F4F9F4F992315
:10402000A9F0F92F96E9BB279395F6958795779593
:104030006795B795F111F8CFFAF4BB0F11F460FF53
:104040001BC06F5F7F4F8F4F9F4F16C0882311F0AB
:1040500096E911C0772321F09EE8872F762F05C0BF
:10406000662371F096E8862F70E060E02AF09A955A
:10407000660F771F881FDAF7880F9695879597F94F
:10408000089597F99F6780E870E060E008959FEFDA
:1040900080EC089500240A941616170618060906DF
:1040A000089500240A9412161306140605060895AE
:1040B000092E0394000C11F4882352F0BB0F40F436
:1040C000BF2B11F460FF04C06F5F7F4F8F4F9F4F76
:1040D000089557FD9058440F551F59F05F3F71F0F8
:1040E0004795880F97FB991F61F09F3F79F087955F
:1040F0000895121613061406551FF2CF4695F1DFE8
:1041000008C0161617061806991FF1CF8695710577
:10411000610508940895E894BB2766277727CB01AB
:1041200097F908950BD0C4CFB5DF28F0BADF18F0A7
:10413000952309F0A6CFABCF1124EECFCADFA0F3B1
:10414000959FD1F3950F50E0551F629FF001729F2C
:10415000BB27F00DB11D639FAA27F00DB11DAA1F4B
:10416000649F6627B00DA11D661F829F2227B00D98
:10417000A11D621F739FB00DA11D621F839FA00D23
:10418000611D221F749F3327A00D611D231F849F73
:10419000600D211D822F762F6A2F11249F575040CA
:1041A0008AF0E1F088234AF0EE0FFF1FBB1F661F65
:1041B000771F881F91505040A9F79E3F510570F01E
:1041C00060CFAACF5F3FECF3983EDCF386957795FE
:1041D0006795B795F795E7959F5FC1F7FE2B880F19
:1041E000911D9695879597F9089597FB092E0526B9
:1041F0000ED057FD04D014D00AD0001C38F45095CE
:104200004095309521953F4F4F4F5F4F0895F6F7FA
:1042100090958095709561957F4F8F4F9F4F089532
:10422000A1E21A2EAA1BBB1BFD010DC0AA1FBB1FBA
:10423000EE1FFF1FA217B307E407F50720F0A21B2C
:10424000B30BE40BF50B661F771F881F991F1A9499
:1042500069F760957095809590959B01AC01BD01C3
:10426000CF010895CF93DF93AC018230910510F414
:1042700042E050E0E091AC04F091AD0420E030E089
:10428000A0E0B0E024C08081918184179507D0F030
:104290008417950771F482819381109729F0139602
:1042A0009C938E9312972CC09093AD048093AC0492
:1042B00027C02115310519F08217930718F49C01C6
:1042C000BD01EF0192818381DF01E92FF82F309743
:1042D000D1F621153105F9F0C901841B950B843005
:1042E000910580F48A819B816115710521F0FB01A4
:1042F0009383828304C09093AD048093AC04FE0149
:10430000329642C0FE01E80FF91F41935193029784
:104310009983888339C08091AA049091AB04009757
:1043200041F480917D0390917E039093AB04809340
:10433000AA0420917B0330917C032115310541F4BF
:104340002DB73EB780917F0390918003281B390BD6
:10435000E091AA04F091AB04E217F30798F42E1B46
:104360003F0B2417350770F0CA010296281739074A
:1043700048F08E0F9F1F9093AB048093AA04419343
:10438000519302C0E0E0F0E0CF01DF91CF910895BA
:104390000F931F93CF93DF939C01009709F48CC078
:1043A000DC01129713961C921E9212976091AC0436
:1043B0007091AD046115710589F48D919C911197EF
:1043C000820F931F2091AA043091AB04281739075C
:1043D00069F5B093AB04A093AA046EC0FB0140E062
:1043E00050E001C0FC01EA17FB0730F482819381A1
:1043F000AF010097B9F71FC0E9012297FB83EA8359
:1044000008811981C901800F911F8E179F0759F4E8
:1044100080819181800F911F029699838883828188
:1044200093819B838A834115510529F4B093AD0490
:10443000A093AC0441C0FA01B383A283C191D1918E
:10444000EC0FFD1FAE17BF0781F4F9019291829125
:104450008C0F9D1F0296DA0111969C938E93828198
:10446000938113969C938E931297E0E0F0E002C044
:10447000FB01BC01DB0112968D919C911397009773
:10448000B9F7CB0102962D913C911197820F931FA2
:104490002091AA043091AB042817390769F43097AA
:1044A00029F41092AD041092AC0402C0138212825F
:1044B0007093AB046093AA04DF91CF911F910F9189
:1044C0000895FC0188279927E89421912032E9F387
:1044D000293010F02E30C8F32B3241F02D3239F450
:1044E000689404C00E94C622820F911D219120531E
:1044F0002A30C0F31EF4909581959F4F089542E9AC
:1045000053E00E949F220895FB01DC010D900020E2
:10451000E9F7119701900D920020E1F70895FB0152
:10452000DC018D91019080190110D9F3990B089548
:10453000FB01DC0101900D920020E1F70895FA01E2
:10454000A191B081009719F41097E1F0CD01DC0141
:10455000CD010D90002011F4C00113C0FB01219189
:10456000222319F02015D9F7F3CFFB012191201553
:1045700019F41E92119606C02223C1F70D90002057
:10458000A1F7D001FA01A193B08308957AE0979F33
:10459000902D879F802D910D112408950F931F93C7
:1045A000CF93DF93CDB7DEB72E970FB6F894DEBF6B
:1045B0000FBECDBF0D891E8986E08C831A830983C7
:1045C0008FEF9FE79E838D83AE01475E5F4FCE01E5
:1045D00001966F89788D0E94FD22EF81F885E00FAA
:1045E000F11F10822E960FB6F894DEBF0FBECDBF1E
:1045F000DF91CF911F910F9108952F923F924F928B
:104600005F926F927F928F929F92AF92BF92CF9262
:10461000DF92EF92FF920F931F93CF93DF93CDB76B
:10462000DEB72D970FB6F894DEBF0FBECDBF3C01AD
:104630007D876C875A01FC0117821682838181FF76
:10464000C8C12E010894411C511CF3019381EC85D3
:10465000FD8593FD859193FF8191FD87EC878823EC
:1046600009F4B3C1853241F493FD859193FF8191A3
:10467000FD87EC87853229F490E0B3010E941A256A
:10468000E4CFFF24EE2410E01032B0F48B3269F056
:104690008C3228F4803251F0833271F40BC08D32A9
:1046A00039F0803349F411602CC01260146029C0C5
:1046B000186027C0106125C017FD2EC0282F205379
:1046C0002A3098F416FF08C08F2D880FF82EFF0CA3
:1046D000FF0CF80EF20E15C08E2D880FE82EEE0C92
:1046E000EE0CE80EE20E10620CC08E3221F416FDC4
:1046F0006CC1106406C08C3611F4106802C0883694
:1047000059F4EC85FD8593FD859193FF8191FD879B
:10471000EC87882309F0B8CF982F9554933018F080
:104720009052933038F424E030E0A20EB31E3FE301
:1047300039830FC0833631F0833781F0833509F038
:104740005AC022C0F5018081898322E030E0A20EA8
:10475000B31E21E0C22ED12C420114C092E0292EBA
:10476000312C2A0C3B1CF5018080918016FF03C080
:104770006F2D70E002C06FEF7FEFC4010E940F2524
:104780006C0151011F7715C082E0282E312C2A0CB4
:104790003B1CF5018080918016FF03C06F2D70E0F7
:1047A00002C06FEF7FEFC4010E9404256C01106806
:1047B000510113FD1CC006C080E290E0B3010E94CD
:1047C0001A25EA948E2D90E0C816D906A8F30FC0DA
:1047D000F40117FD859117FF81914F0190E0B3011E
:1047E0000E941A25E110EA940894C108D108C11466
:1047F000D10471F7E7C0843611F0893651F5F5011F
:1048000017FF07C080819181A281B38124E030E04D
:1048100008C080819181AA2797FDA095BA2F22E038
:1048200030E0A20EB31E012F0F76B7FF08C0B0957F
:10483000A095909581959F4FAF4FBF4F0068BC01E9
:10484000CD01A2012AE030E00E944625D82ED418DE
:104850003FC0853721F41F7E2AE030E020C0197F59
:104860008F36A9F0803720F4883509F0AEC00BC030
:10487000803721F0883709F0A8C001C0106114FF0B
:1048800009C0146007C014FF08C0166006C028E005
:1048900030E005C020E130E002C020E132E0F50167
:1048A00017FF07C0608171818281938144E050E0ED
:1048B00006C06081718180E090E042E050E0A40E8B
:1048C000B51EA2010E944625D82ED418012F0F77BD
:1048D00006FF09C00E7FDF1430F404FF06C002FD9E
:1048E00004C00F7E02C01D2D01C01F2D802F90E03F
:1048F00004FF0CC0FE01ED0DF11D2081203311F4E9
:10490000097E09C002FF06C01E5F05C08678907050
:10491000009709F01F5F802E992403FD12C000FF4D
:104920000DC0FD2C1E1550F4FE0CF11A1E2D06C0F4
:1049300080E290E0B3010E941A251F5F1E15C0F3AC
:1049400004C01E1510F4E11A01C0EE2484FE0FC04D
:1049500080E390E0B3010E941A2582FE1FC081FE11
:1049600003C088E590E010C088E790E00DC0C40166
:1049700086789070009791F081FC02C080E201C0BF
:104980008BE207FD8DE290E0B3010E941A2506C07C
:1049900080E390E0B3010E941A25FA94DF14C0F37B
:1049A000DA94F201ED0DF11D808190E0B3010E94D7
:1049B0001A25DD20A9F706C080E290E0B3010E942D
:1049C0001A25EA94EE20C1F740CEF3018681978143
:1049D00002C08FEF9FEF2D960FB6F894DEBF0FBE8B
:1049E000CDBFDF91CF911F910F91FF90EF90DF909E
:1049F000CF90BF90AF909F908F907F906F905F907F
:104A00004F903F902F900895FC01059061507040A9
:104A10000110D8F7809590958E0F9F1F0895FC0187
:104A20006150704001900110D8F7809590958E0FDD
:104A30009F1F08950F931F93CF93DF938C01EB017A
:104A40008B8181FF1BC082FF0DC02E813F818C8135
:104A50009D812817390764F4E881F9810193F9836E
:104A6000E88306C0E885F985802F0995009731F421
:104A70008E819F8101969F838E8302C00FEF1FEF6F
:104A8000C801DF91CF911F910F910895FA01AA27D4
:104A9000283051F1203181F1E8946F936E7F6E5F81
:104AA0007F4F8F4F9F4FAF4FB1E03ED0B4E03CD02F
:104AB000670F781F891F9A1FA11D680F791F8A1F12
:104AC000911DA11D6A0F711D811D911DA11D20D079
:104AD00009F468943F912AE0269F11243019305D33
:104AE0003193DEF6CF010895462F4770405D419324
:104AF000B3E00FD0C9F7F6CF462F4F70405D4A3371
:104B000018F0495D31FD4052419302D0A9F7EACF38
:104B1000B4E0A6959795879577956795BA95C9F767
:104B200000976105710508959B01AC010A2E06945A
:104B30005795479537952795BA95C9F7620F731F13
:0C4B4000841F951FA01D0895F894FFCF5E
:104B4C0025640043757272656E742054696D653A04
:104B5C000043757272656E742054656D703A002056
:104B6C00460043757272656E742048756D69646990
:104B7C0074793A004C696E6520313A205374617235
:104B8C0074204020004C696E6520313A2052756EBD
:104B9C00732000204D696E004C696E6520313A20FF
:104BAC004E6F204572726F727321004C696E6520D6
:104BBC00313A20436865636B20466C6F7721004C5B
:104BCC00696E6520323A2053746172742040200063
:104BDC004C696E6520323A2052756E7320004C6918
:104BEC006E6520323A204E6F204572726F727321BF
:104BFC00004C696E6520323A20436865636B204631
:104C0C006C6F7721004D6573736167657320004C81
:104C1C00696E6520313A2000204D696E2052656D19
:104C2C0061696E696E67004C696E6520323A2000CE
:104C3C003A0053657454696D65002C3A0054696DE3
:104C4C006520486173204265656E205365742100B0
:104C5C004572726F722053657474696E6720546963
:104C6C006D652100536574537461727454696D657C
:104C7C000053746172742054696D6520486173200F
:104C8C004265656E20536574206F6E204C696E65AD
:104C9C00203121004572726F722053657474696EF5
:104CAC00672053746172742054696D6521005374CC
:104CBC006172742054696D6520486173204265658A
:104CCC006E20536574206F6E204C696E6520322106
:104CDC000053657452756E0052756E2054696D6583
:104CEC0020486173204265656E20536574206F6E99
:104CFC00204C696E65203121004572726F72205311
:104D0C00657474696E672052756E2054696D6521E7
:104D1C000052756E2054496D6520486173204265C0
:104D2C00656E20536574206F6E204C696E65203261
:104D3C0021004C696E654F6E004C696E6520312008
:104D4C004F6E21004C696E652032204F6E2100455C
:104D5C0072726F722053657474696E67204C696E41
:104D6C0065204F6E21004C696E654F6666004C697C
:104D7C006E652031204F666621004C696E652032CD
:104D8C00204F666621004572726F722053657474F1
:104D9C00696E67204C696E65204F6666210045720E
:104DAC00726F72205769746820436F6D6D616E6409
:104DBC002100803E0000803E0000010000AE042077
:024DCC000000E5
:00000001FF
